{
  "contractName": "MartianMarket",
  "abi": [
    {
      "inputs": [],
      "stateMutability": "nonpayable",
      "type": "constructor"
    },
    {
      "anonymous": false,
      "inputs": [
        {
          "indexed": true,
          "internalType": "address",
          "name": "owner",
          "type": "address"
        },
        {
          "indexed": true,
          "internalType": "address",
          "name": "approved",
          "type": "address"
        },
        {
          "indexed": true,
          "internalType": "uint256",
          "name": "tokenId",
          "type": "uint256"
        }
      ],
      "name": "Approval",
      "type": "event"
    },
    {
      "anonymous": false,
      "inputs": [
        {
          "indexed": true,
          "internalType": "address",
          "name": "owner",
          "type": "address"
        },
        {
          "indexed": true,
          "internalType": "address",
          "name": "operator",
          "type": "address"
        },
        {
          "indexed": false,
          "internalType": "bool",
          "name": "approved",
          "type": "bool"
        }
      ],
      "name": "ApprovalForAll",
      "type": "event"
    },
    {
      "anonymous": false,
      "inputs": [
        {
          "indexed": true,
          "internalType": "address",
          "name": "previousOwner",
          "type": "address"
        },
        {
          "indexed": true,
          "internalType": "address",
          "name": "newOwner",
          "type": "address"
        }
      ],
      "name": "OwnershipTransferred",
      "type": "event"
    },
    {
      "anonymous": false,
      "inputs": [
        {
          "indexed": true,
          "internalType": "address",
          "name": "from",
          "type": "address"
        },
        {
          "indexed": true,
          "internalType": "address",
          "name": "to",
          "type": "address"
        },
        {
          "indexed": true,
          "internalType": "uint256",
          "name": "tokenId",
          "type": "uint256"
        }
      ],
      "name": "Transfer",
      "type": "event"
    },
    {
      "inputs": [
        {
          "internalType": "address",
          "name": "to",
          "type": "address"
        },
        {
          "internalType": "uint256",
          "name": "tokenId",
          "type": "uint256"
        }
      ],
      "name": "approve",
      "outputs": [],
      "stateMutability": "nonpayable",
      "type": "function"
    },
    {
      "inputs": [
        {
          "internalType": "uint256",
          "name": "",
          "type": "uint256"
        }
      ],
      "name": "auctions",
      "outputs": [
        {
          "internalType": "contract MartianAuction",
          "name": "",
          "type": "address"
        }
      ],
      "stateMutability": "view",
      "type": "function",
      "constant": true
    },
    {
      "inputs": [
        {
          "internalType": "address",
          "name": "owner",
          "type": "address"
        }
      ],
      "name": "balanceOf",
      "outputs": [
        {
          "internalType": "uint256",
          "name": "",
          "type": "uint256"
        }
      ],
      "stateMutability": "view",
      "type": "function",
      "constant": true
    },
    {
      "inputs": [],
      "name": "baseURI",
      "outputs": [
        {
          "internalType": "string",
          "name": "",
          "type": "string"
        }
      ],
      "stateMutability": "view",
      "type": "function",
      "constant": true
    },
    {
      "inputs": [
        {
          "internalType": "uint256",
          "name": "tokenId",
          "type": "uint256"
        }
      ],
      "name": "getApproved",
      "outputs": [
        {
          "internalType": "address",
          "name": "",
          "type": "address"
        }
      ],
      "stateMutability": "view",
      "type": "function",
      "constant": true
    },
    {
      "inputs": [
        {
          "internalType": "address",
          "name": "owner",
          "type": "address"
        },
        {
          "internalType": "address",
          "name": "operator",
          "type": "address"
        }
      ],
      "name": "isApprovedForAll",
      "outputs": [
        {
          "internalType": "bool",
          "name": "",
          "type": "bool"
        }
      ],
      "stateMutability": "view",
      "type": "function",
      "constant": true
    },
    {
      "inputs": [],
      "name": "name",
      "outputs": [
        {
          "internalType": "string",
          "name": "",
          "type": "string"
        }
      ],
      "stateMutability": "view",
      "type": "function",
      "constant": true
    },
    {
      "inputs": [],
      "name": "owner",
      "outputs": [
        {
          "internalType": "address",
          "name": "",
          "type": "address"
        }
      ],
      "stateMutability": "view",
      "type": "function",
      "constant": true
    },
    {
      "inputs": [
        {
          "internalType": "uint256",
          "name": "tokenId",
          "type": "uint256"
        }
      ],
      "name": "ownerOf",
      "outputs": [
        {
          "internalType": "address",
          "name": "",
          "type": "address"
        }
      ],
      "stateMutability": "view",
      "type": "function",
      "constant": true
    },
    {
      "inputs": [],
      "name": "renounceOwnership",
      "outputs": [],
      "stateMutability": "nonpayable",
      "type": "function"
    },
    {
      "inputs": [
        {
          "internalType": "address",
          "name": "from",
          "type": "address"
        },
        {
          "internalType": "address",
          "name": "to",
          "type": "address"
        },
        {
          "internalType": "uint256",
          "name": "tokenId",
          "type": "uint256"
        }
      ],
      "name": "safeTransferFrom",
      "outputs": [],
      "stateMutability": "nonpayable",
      "type": "function"
    },
    {
      "inputs": [
        {
          "internalType": "address",
          "name": "from",
          "type": "address"
        },
        {
          "internalType": "address",
          "name": "to",
          "type": "address"
        },
        {
          "internalType": "uint256",
          "name": "tokenId",
          "type": "uint256"
        },
        {
          "internalType": "bytes",
          "name": "_data",
          "type": "bytes"
        }
      ],
      "name": "safeTransferFrom",
      "outputs": [],
      "stateMutability": "nonpayable",
      "type": "function"
    },
    {
      "inputs": [
        {
          "internalType": "address",
          "name": "operator",
          "type": "address"
        },
        {
          "internalType": "bool",
          "name": "approved",
          "type": "bool"
        }
      ],
      "name": "setApprovalForAll",
      "outputs": [],
      "stateMutability": "nonpayable",
      "type": "function"
    },
    {
      "inputs": [
        {
          "internalType": "bytes4",
          "name": "interfaceId",
          "type": "bytes4"
        }
      ],
      "name": "supportsInterface",
      "outputs": [
        {
          "internalType": "bool",
          "name": "",
          "type": "bool"
        }
      ],
      "stateMutability": "view",
      "type": "function",
      "constant": true
    },
    {
      "inputs": [],
      "name": "symbol",
      "outputs": [
        {
          "internalType": "string",
          "name": "",
          "type": "string"
        }
      ],
      "stateMutability": "view",
      "type": "function",
      "constant": true
    },
    {
      "inputs": [
        {
          "internalType": "uint256",
          "name": "index",
          "type": "uint256"
        }
      ],
      "name": "tokenByIndex",
      "outputs": [
        {
          "internalType": "uint256",
          "name": "",
          "type": "uint256"
        }
      ],
      "stateMutability": "view",
      "type": "function",
      "constant": true
    },
    {
      "inputs": [
        {
          "internalType": "address",
          "name": "owner",
          "type": "address"
        },
        {
          "internalType": "uint256",
          "name": "index",
          "type": "uint256"
        }
      ],
      "name": "tokenOfOwnerByIndex",
      "outputs": [
        {
          "internalType": "uint256",
          "name": "",
          "type": "uint256"
        }
      ],
      "stateMutability": "view",
      "type": "function",
      "constant": true
    },
    {
      "inputs": [
        {
          "internalType": "uint256",
          "name": "tokenId",
          "type": "uint256"
        }
      ],
      "name": "tokenURI",
      "outputs": [
        {
          "internalType": "string",
          "name": "",
          "type": "string"
        }
      ],
      "stateMutability": "view",
      "type": "function",
      "constant": true
    },
    {
      "inputs": [],
      "name": "totalSupply",
      "outputs": [
        {
          "internalType": "uint256",
          "name": "",
          "type": "uint256"
        }
      ],
      "stateMutability": "view",
      "type": "function",
      "constant": true
    },
    {
      "inputs": [
        {
          "internalType": "address",
          "name": "from",
          "type": "address"
        },
        {
          "internalType": "address",
          "name": "to",
          "type": "address"
        },
        {
          "internalType": "uint256",
          "name": "tokenId",
          "type": "uint256"
        }
      ],
      "name": "transferFrom",
      "outputs": [],
      "stateMutability": "nonpayable",
      "type": "function"
    },
    {
      "inputs": [
        {
          "internalType": "address",
          "name": "newOwner",
          "type": "address"
        }
      ],
      "name": "transferOwnership",
      "outputs": [],
      "stateMutability": "nonpayable",
      "type": "function"
    },
    {
      "inputs": [
        {
          "internalType": "string",
          "name": "tokenURI",
          "type": "string"
        }
      ],
      "name": "registerLand",
      "outputs": [],
      "stateMutability": "payable",
      "type": "function",
      "payable": true
    },
    {
      "inputs": [
        {
          "internalType": "uint256",
          "name": "tokenId",
          "type": "uint256"
        }
      ],
      "name": "createAuction",
      "outputs": [],
      "stateMutability": "nonpayable",
      "type": "function"
    },
    {
      "inputs": [
        {
          "internalType": "uint256",
          "name": "tokenId",
          "type": "uint256"
        }
      ],
      "name": "getAuction",
      "outputs": [
        {
          "internalType": "contract MartianAuction",
          "name": "",
          "type": "address"
        }
      ],
      "stateMutability": "view",
      "type": "function",
      "constant": true
    },
    {
      "inputs": [
        {
          "internalType": "uint256",
          "name": "tokenId",
          "type": "uint256"
        }
      ],
      "name": "endAuction",
      "outputs": [],
      "stateMutability": "nonpayable",
      "type": "function"
    },
    {
      "inputs": [
        {
          "internalType": "uint256",
          "name": "tokenId",
          "type": "uint256"
        }
      ],
      "name": "auctionEnded",
      "outputs": [
        {
          "internalType": "bool",
          "name": "",
          "type": "bool"
        }
      ],
      "stateMutability": "view",
      "type": "function",
      "constant": true
    },
    {
      "inputs": [
        {
          "internalType": "uint256",
          "name": "tokenId",
          "type": "uint256"
        }
      ],
      "name": "highestBid",
      "outputs": [
        {
          "internalType": "uint256",
          "name": "",
          "type": "uint256"
        }
      ],
      "stateMutability": "view",
      "type": "function",
      "constant": true
    },
    {
      "inputs": [
        {
          "internalType": "uint256",
          "name": "tokenId",
          "type": "uint256"
        },
        {
          "internalType": "address",
          "name": "sender",
          "type": "address"
        }
      ],
      "name": "pendingReturn",
      "outputs": [
        {
          "internalType": "uint256",
          "name": "",
          "type": "uint256"
        }
      ],
      "stateMutability": "view",
      "type": "function",
      "constant": true
    },
    {
      "inputs": [
        {
          "internalType": "uint256",
          "name": "tokenId",
          "type": "uint256"
        }
      ],
      "name": "bid",
      "outputs": [],
      "stateMutability": "payable",
      "type": "function",
      "payable": true
    }
  ],
  "bytecode": "0x608060405233600b60006101000a81548173ffffffffffffffffffffffffffffffffffffffff021916908373ffffffffffffffffffffffffffffffffffffffff1602179055503480156200005257600080fd5b506040518060400160405280600d81526020017f4d61727469616e4d61726b6574000000000000000000000000000000000000008152506040518060400160405280600481526020017f4d41525300000000000000000000000000000000000000000000000000000000815250620000d76301ffc9a760e01b6200020a60201b60201c565b8160069080519060200190620000ef9291906200031b565b508060079080519060200190620001089291906200031b565b50620001216380ac58cd60e01b6200020a60201b60201c565b62000139635b5e139f60e01b6200020a60201b60201c565b6200015163780e9d6360e01b6200020a60201b60201c565b50506000620001656200031360201b60201c565b905080600a60006101000a81548173ffffffffffffffffffffffffffffffffffffffff021916908373ffffffffffffffffffffffffffffffffffffffff1602179055508073ffffffffffffffffffffffffffffffffffffffff16600073ffffffffffffffffffffffffffffffffffffffff167f8be0079c531659141344cd1fd0a4f28419497f9722a3daafe3b4186f6b6457e060405160405180910390a350620003c1565b63ffffffff60e01b817bffffffffffffffffffffffffffffffffffffffffffffffffffffffff19161415620002a7576040517f08c379a000000000000000000000000000000000000000000000000000000000815260040180806020018281038252601c8152602001807f4552433136353a20696e76616c696420696e746572666163652069640000000081525060200191505060405180910390fd5b6001600080837bffffffffffffffffffffffffffffffffffffffffffffffffffffffff19167bffffffffffffffffffffffffffffffffffffffffffffffffffffffff1916815260200190815260200160002060006101000a81548160ff02191690831515021790555050565b600033905090565b828054600181600116156101000203166002900490600052602060002090601f016020900481019282601f106200035e57805160ff19168380011785556200038f565b828001600101855582156200038f579182015b828111156200038e57825182559160200191906001019062000371565b5b5090506200039e9190620003a2565b5090565b5b80821115620003bd576000816000905550600101620003a3565b5090565b6144a380620003d16000396000f3fe6080604052600436106101c25760003560e01c8063715018a6116100f7578063b1dc7b8b11610095578063d5563f3111610064578063d5563f3114610c0d578063e985e9c514610c48578063f2fde38b14610ccf578063fbed216b14610d20576101c2565b8063b1dc7b8b1461099d578063b88d4fde14610a0c578063b9a2de3a14610b1e578063c87b56dd14610b59576101c2565b806395d89b41116100d157806395d89b41146108105780639e712387146108a0578063a22cb465146108f1578063b14c63c51461094e576101c2565b8063715018a61461075357806378bd79351461076a5780638da5cb5b146107cf576101c2565b806342842e0e11610164578063571a26a01161013e578063571a26a0146105945780636352211e146105f95780636c0360eb1461065e57806370a08231146106ee576101c2565b806342842e0e1461049c578063454a2ab3146105175780634f6ccce714610545576101c2565b8063095ea7b3116101a0578063095ea7b31461032c57806318160ddd1461038757806323b872dd146103b25780632f745c591461042d576101c2565b806301ffc9a7146101c757806306fdde0314610237578063081812fc146102c7575b600080fd5b3480156101d357600080fd5b5061021f600480360360208110156101ea57600080fd5b8101908080357bffffffffffffffffffffffffffffffffffffffffffffffffffffffff19169060200190929190505050610ddb565b60405180821515815260200191505060405180910390f35b34801561024357600080fd5b5061024c610e42565b6040518080602001828103825283818151815260200191508051906020019080838360005b8381101561028c578082015181840152602081019050610271565b50505050905090810190601f1680156102b95780820380516001836020036101000a031916815260200191505b509250505060405180910390f35b3480156102d357600080fd5b50610300600480360360208110156102ea57600080fd5b8101908080359060200190929190505050610ee4565b604051808273ffffffffffffffffffffffffffffffffffffffff16815260200191505060405180910390f35b34801561033857600080fd5b506103856004803603604081101561034f57600080fd5b81019080803573ffffffffffffffffffffffffffffffffffffffff16906020019092919080359060200190929190505050610f7f565b005b34801561039357600080fd5b5061039c6110c3565b6040518082815260200191505060405180910390f35b3480156103be57600080fd5b5061042b600480360360608110156103d557600080fd5b81019080803573ffffffffffffffffffffffffffffffffffffffff169060200190929190803573ffffffffffffffffffffffffffffffffffffffff169060200190929190803590602001909291905050506110d4565b005b34801561043957600080fd5b506104866004803603604081101561045057600080fd5b81019080803573ffffffffffffffffffffffffffffffffffffffff1690602001909291908035906020019092919050505061114a565b6040518082815260200191505060405180910390f35b3480156104a857600080fd5b50610515600480360360608110156104bf57600080fd5b81019080803573ffffffffffffffffffffffffffffffffffffffff169060200190929190803573ffffffffffffffffffffffffffffffffffffffff169060200190929190803590602001909291905050506111a5565b005b6105436004803603602081101561052d57600080fd5b81019080803590602001909291905050506111c5565b005b34801561055157600080fd5b5061057e6004803603602081101561056857600080fd5b8101908080359060200190929190505050611258565b6040518082815260200191505060405180910390f35b3480156105a057600080fd5b506105cd600480360360208110156105b757600080fd5b810190808035906020019092919050505061127b565b604051808273ffffffffffffffffffffffffffffffffffffffff16815260200191505060405180910390f35b34801561060557600080fd5b506106326004803603602081101561061c57600080fd5b81019080803590602001909291905050506112ae565b604051808273ffffffffffffffffffffffffffffffffffffffff16815260200191505060405180910390f35b34801561066a57600080fd5b506106736112e5565b6040518080602001828103825283818151815260200191508051906020019080838360005b838110156106b3578082015181840152602081019050610698565b50505050905090810190601f1680156106e05780820380516001836020036101000a031916815260200191505b509250505060405180910390f35b3480156106fa57600080fd5b5061073d6004803603602081101561071157600080fd5b81019080803573ffffffffffffffffffffffffffffffffffffffff169060200190929190505050611387565b6040518082815260200191505060405180910390f35b34801561075f57600080fd5b5061076861145c565b005b34801561077657600080fd5b506107a36004803603602081101561078d57600080fd5b81019080803590602001909291905050506115e7565b604051808273ffffffffffffffffffffffffffffffffffffffff16815260200191505060405180910390f35b3480156107db57600080fd5b506107e46116a5565b604051808273ffffffffffffffffffffffffffffffffffffffff16815260200191505060405180910390f35b34801561081c57600080fd5b506108256116cf565b6040518080602001828103825283818151815260200191508051906020019080838360005b8381101561086557808201518184015260208101905061084a565b50505050905090810190601f1680156108925780820380516001836020036101000a031916815260200191505b509250505060405180910390f35b3480156108ac57600080fd5b506108d9600480360360208110156108c357600080fd5b8101908080359060200190929190505050611771565b60405180821515815260200191505060405180910390f35b3480156108fd57600080fd5b5061094c6004803603604081101561091457600080fd5b81019080803573ffffffffffffffffffffffffffffffffffffffff169060200190929190803515159060200190929190505050611808565b005b34801561095a57600080fd5b506109876004803603602081101561097157600080fd5b81019080803590602001909291905050506119be565b6040518082815260200191505060405180910390f35b3480156109a957600080fd5b506109f6600480360360408110156109c057600080fd5b8101908080359060200190929190803573ffffffffffffffffffffffffffffffffffffffff169060200190929190505050611a55565b6040518082815260200191505060405180910390f35b348015610a1857600080fd5b50610b1c60048036036080811015610a2f57600080fd5b81019080803573ffffffffffffffffffffffffffffffffffffffff169060200190929190803573ffffffffffffffffffffffffffffffffffffffff1690602001909291908035906020019092919080359060200190640100000000811115610a9657600080fd5b820183602082011115610aa857600080fd5b80359060200191846001830284011164010000000083111715610aca57600080fd5b91908080601f016020809104026020016040519081016040528093929190818152602001838380828437600081840152601f19601f820116905080830192505050505050509192919290505050611b0e565b005b348015610b2a57600080fd5b50610b5760048036036020811015610b4157600080fd5b8101908080359060200190929190505050611b86565b005b348015610b6557600080fd5b50610b9260048036036020811015610b7c57600080fd5b8101908080359060200190929190505050611d53565b6040518080602001828103825283818151815260200191508051906020019080838360005b83811015610bd2578082015181840152602081019050610bb7565b50505050905090810190601f168015610bff5780820380516001836020036101000a031916815260200191505b509250505060405180910390f35b348015610c1957600080fd5b50610c4660048036036020811015610c3057600080fd5b810190808035906020019092919050505061203c565b005b348015610c5457600080fd5b50610cb760048036036040811015610c6b57600080fd5b81019080803573ffffffffffffffffffffffffffffffffffffffff169060200190929190803573ffffffffffffffffffffffffffffffffffffffff1690602001909291905050506121c6565b60405180821515815260200191505060405180910390f35b348015610cdb57600080fd5b50610d1e60048036036020811015610cf257600080fd5b81019080803573ffffffffffffffffffffffffffffffffffffffff16906020019092919050505061225a565b005b610dd960048036036020811015610d3657600080fd5b8101908080359060200190640100000000811115610d5357600080fd5b820183602082011115610d6557600080fd5b80359060200191846001830284011164010000000083111715610d8757600080fd5b91908080601f016020809104026020016040519081016040528093929190818152602001838380828437600081840152601f19601f82011690508083019250505050505050919291929050505061246a565b005b6000806000837bffffffffffffffffffffffffffffffffffffffffffffffffffffffff19167bffffffffffffffffffffffffffffffffffffffffffffffffffffffff1916815260200190815260200160002060009054906101000a900460ff169050919050565b606060068054600181600116156101000203166002900480601f016020809104026020016040519081016040528092919081815260200182805460018160011615610100020316600290048015610eda5780601f10610eaf57610100808354040283529160200191610eda565b820191906000526020600020905b815481529060010190602001808311610ebd57829003601f168201915b5050505050905090565b6000610eef82612583565b610f44576040517f08c379a000000000000000000000000000000000000000000000000000000000815260040180806020018281038252602c81526020018061436c602c913960400191505060405180910390fd5b6004600083815260200190815260200160002060009054906101000a900473ffffffffffffffffffffffffffffffffffffffff169050919050565b6000610f8a826112ae565b90508073ffffffffffffffffffffffffffffffffffffffff168373ffffffffffffffffffffffffffffffffffffffff161415611011576040517f08c379a000000000000000000000000000000000000000000000000000000000815260040180806020018281038252602181526020018061441c6021913960400191505060405180910390fd5b8073ffffffffffffffffffffffffffffffffffffffff166110306125a0565b73ffffffffffffffffffffffffffffffffffffffff16148061105f575061105e816110596125a0565b6121c6565b5b6110b4576040517f08c379a00000000000000000000000000000000000000000000000000000000081526004018080602001828103825260388152602001806142bf6038913960400191505060405180910390fd5b6110be83836125a8565b505050565b60006110cf6002612661565b905090565b6110e56110df6125a0565b82612676565b61113a576040517f08c379a000000000000000000000000000000000000000000000000000000000815260040180806020018281038252603181526020018061443d6031913960400191505060405180910390fd5b61114583838361276a565b505050565b600061119d82600160008673ffffffffffffffffffffffffffffffffffffffff1673ffffffffffffffffffffffffffffffffffffffff1681526020019081526020016000206129ad90919063ffffffff16565b905092915050565b6111c083838360405180602001604052806000815250611b0e565b505050565b60006111d0826115e7565b90508073ffffffffffffffffffffffffffffffffffffffff16639cf5453d34336040518363ffffffff1660e01b8152600401808273ffffffffffffffffffffffffffffffffffffffff1681526020019150506000604051808303818588803b15801561123b57600080fd5b505af115801561124f573d6000803e3d6000fd5b50505050505050565b60008061126f8360026129c790919063ffffffff16565b50905080915050919050565b600c6020528060005260406000206000915054906101000a900473ffffffffffffffffffffffffffffffffffffffff1681565b60006112de826040518060600160405280602981526020016143216029913960026129f39092919063ffffffff16565b9050919050565b606060098054600181600116156101000203166002900480601f01602080910402602001604051908101604052809291908181526020018280546001816001161561010002031660029004801561137d5780601f106113525761010080835404028352916020019161137d565b820191906000526020600020905b81548152906001019060200180831161136057829003601f168201915b5050505050905090565b60008073ffffffffffffffffffffffffffffffffffffffff168273ffffffffffffffffffffffffffffffffffffffff16141561140e576040517f08c379a000000000000000000000000000000000000000000000000000000000815260040180806020018281038252602a8152602001806142f7602a913960400191505060405180910390fd5b611455600160008473ffffffffffffffffffffffffffffffffffffffff1673ffffffffffffffffffffffffffffffffffffffff168152602001908152602001600020612a12565b9050919050565b6114646125a0565b73ffffffffffffffffffffffffffffffffffffffff16600a60009054906101000a900473ffffffffffffffffffffffffffffffffffffffff1673ffffffffffffffffffffffffffffffffffffffff1614611526576040517f08c379a00000000000000000000000000000000000000000000000000000000081526004018080602001828103825260208152602001807f4f776e61626c653a2063616c6c6572206973206e6f7420746865206f776e657281525060200191505060405180910390fd5b600073ffffffffffffffffffffffffffffffffffffffff16600a60009054906101000a900473ffffffffffffffffffffffffffffffffffffffff1673ffffffffffffffffffffffffffffffffffffffff167f8be0079c531659141344cd1fd0a4f28419497f9722a3daafe3b4186f6b6457e060405160405180910390a36000600a60006101000a81548173ffffffffffffffffffffffffffffffffffffffff021916908373ffffffffffffffffffffffffffffffffffffffff160217905550565b60006115f282612583565b611664576040517f08c379a00000000000000000000000000000000000000000000000000000000081526004018080602001828103825260148152602001807f4c616e64206e6f7420726567697374657265642100000000000000000000000081525060200191505060405180910390fd5b6000600c600084815260200190815260200160002060009054906101000a900473ffffffffffffffffffffffffffffffffffffffff16905080915050919050565b6000600a60009054906101000a900473ffffffffffffffffffffffffffffffffffffffff16905090565b606060078054600181600116156101000203166002900480601f0160208091040260200160405190810160405280929190818152602001828054600181600116156101000203166002900480156117675780601f1061173c57610100808354040283529160200191611767565b820191906000526020600020905b81548152906001019060200180831161174a57829003601f168201915b5050505050905090565b60008061177d836115e7565b90508073ffffffffffffffffffffffffffffffffffffffff166312fa6feb6040518163ffffffff1660e01b815260040160206040518083038186803b1580156117c557600080fd5b505afa1580156117d9573d6000803e3d6000fd5b505050506040513d60208110156117ef57600080fd5b8101908080519060200190929190505050915050919050565b6118106125a0565b73ffffffffffffffffffffffffffffffffffffffff168273ffffffffffffffffffffffffffffffffffffffff1614156118b1576040517f08c379a00000000000000000000000000000000000000000000000000000000081526004018080602001828103825260198152602001807f4552433732313a20617070726f766520746f2063616c6c65720000000000000081525060200191505060405180910390fd5b80600560006118be6125a0565b73ffffffffffffffffffffffffffffffffffffffff1673ffffffffffffffffffffffffffffffffffffffff16815260200190815260200160002060008473ffffffffffffffffffffffffffffffffffffffff1673ffffffffffffffffffffffffffffffffffffffff16815260200190815260200160002060006101000a81548160ff0219169083151502179055508173ffffffffffffffffffffffffffffffffffffffff1661196b6125a0565b73ffffffffffffffffffffffffffffffffffffffff167f17307eab39ab6107e8899845ad3d59bd9653f200f220920489ca2b5937696c318360405180821515815260200191505060405180910390a35050565b6000806119ca836115e7565b90508073ffffffffffffffffffffffffffffffffffffffff1663d57bde796040518163ffffffff1660e01b815260040160206040518083038186803b158015611a1257600080fd5b505afa158015611a26573d6000803e3d6000fd5b505050506040513d6020811015611a3c57600080fd5b8101908080519060200190929190505050915050919050565b600080611a61846115e7565b90508073ffffffffffffffffffffffffffffffffffffffff1663c937f9fd846040518263ffffffff1660e01b8152600401808273ffffffffffffffffffffffffffffffffffffffff16815260200191505060206040518083038186803b158015611aca57600080fd5b505afa158015611ade573d6000803e3d6000fd5b505050506040513d6020811015611af457600080fd5b810190808051906020019092919050505091505092915050565b611b1f611b196125a0565b83612676565b611b74576040517f08c379a000000000000000000000000000000000000000000000000000000000815260040180806020018281038252603181526020018061443d6031913960400191505060405180910390fd5b611b8084848484612a27565b50505050565b611b8e6125a0565b73ffffffffffffffffffffffffffffffffffffffff16600a60009054906101000a900473ffffffffffffffffffffffffffffffffffffffff1673ffffffffffffffffffffffffffffffffffffffff1614611c50576040517f08c379a00000000000000000000000000000000000000000000000000000000081526004018080602001828103825260208152602001807f4f776e61626c653a2063616c6c6572206973206e6f7420746865206f776e657281525060200191505060405180910390fd5b6000611c5b826115e7565b90508073ffffffffffffffffffffffffffffffffffffffff16632a24f46c6040518163ffffffff1660e01b8152600401600060405180830381600087803b158015611ca557600080fd5b505af1158015611cb9573d6000803e3d6000fd5b50505050611d4f611cc86116a5565b8273ffffffffffffffffffffffffffffffffffffffff166391f901576040518163ffffffff1660e01b815260040160206040518083038186803b158015611d0e57600080fd5b505afa158015611d22573d6000803e3d6000fd5b505050506040513d6020811015611d3857600080fd5b8101908080519060200190929190505050846111a5565b5050565b6060611d5e82612583565b611db3576040517f08c379a000000000000000000000000000000000000000000000000000000000815260040180806020018281038252602f8152602001806143ed602f913960400191505060405180910390fd5b6060600860008481526020019081526020016000208054600181600116156101000203166002900480601f016020809104026020016040519081016040528092919081815260200182805460018160011615610100020316600290048015611e5c5780601f10611e3157610100808354040283529160200191611e5c565b820191906000526020600020905b815481529060010190602001808311611e3f57829003601f168201915b50505050509050600060098054600181600116156101000203166002900490501415611e8b5780915050612037565b600081511115611f64576009816040516020018083805460018160011615610100020316600290048015611ef65780601f10611ed4576101008083540402835291820191611ef6565b820191906000526020600020905b815481529060010190602001808311611ee2575b505082805190602001908083835b60208310611f275780518252602082019150602081019050602083039250611f04565b6001836020036101000a03801982511681845116808217855250505050505090500192505050604051602081830303815290604052915050612037565b6009611f6f84612a99565b6040516020018083805460018160011615610100020316600290048015611fcd5780601f10611fab576101008083540402835291820191611fcd565b820191906000526020600020905b815481529060010190602001808311611fb9575b505082805190602001908083835b60208310611ffe5780518252602082019150602081019050602083039250611fdb565b6001836020036101000a038019825116818451168082178552505050505050905001925050506040516020818303038152906040529150505b919050565b6120446125a0565b73ffffffffffffffffffffffffffffffffffffffff16600a60009054906101000a900473ffffffffffffffffffffffffffffffffffffffff1673ffffffffffffffffffffffffffffffffffffffff1614612106576040517f08c379a00000000000000000000000000000000000000000000000000000000081526004018080602001828103825260208152602001807f4f776e61626c653a2063616c6c6572206973206e6f7420746865206f776e657281525060200191505060405180910390fd5b600b60009054906101000a900473ffffffffffffffffffffffffffffffffffffffff16604051612135906137de565b808273ffffffffffffffffffffffffffffffffffffffff168152602001915050604051809103906000f080158015612171573d6000803e3d6000fd5b50600c600083815260200190815260200160002060006101000a81548173ffffffffffffffffffffffffffffffffffffffff021916908373ffffffffffffffffffffffffffffffffffffffff16021790555050565b6000600560008473ffffffffffffffffffffffffffffffffffffffff1673ffffffffffffffffffffffffffffffffffffffff16815260200190815260200160002060008373ffffffffffffffffffffffffffffffffffffffff1673ffffffffffffffffffffffffffffffffffffffff16815260200190815260200160002060009054906101000a900460ff16905092915050565b6122626125a0565b73ffffffffffffffffffffffffffffffffffffffff16600a60009054906101000a900473ffffffffffffffffffffffffffffffffffffffff1673ffffffffffffffffffffffffffffffffffffffff1614612324576040517f08c379a00000000000000000000000000000000000000000000000000000000081526004018080602001828103825260208152602001807f4f776e61626c653a2063616c6c6572206973206e6f7420746865206f776e657281525060200191505060405180910390fd5b600073ffffffffffffffffffffffffffffffffffffffff168173ffffffffffffffffffffffffffffffffffffffff1614156123aa576040517f08c379a00000000000000000000000000000000000000000000000000000000081526004018080602001828103825260268152602001806142496026913960400191505060405180910390fd5b8073ffffffffffffffffffffffffffffffffffffffff16600a60009054906101000a900473ffffffffffffffffffffffffffffffffffffffff1673ffffffffffffffffffffffffffffffffffffffff167f8be0079c531659141344cd1fd0a4f28419497f9722a3daafe3b4186f6b6457e060405160405180910390a380600a60006101000a81548173ffffffffffffffffffffffffffffffffffffffff021916908373ffffffffffffffffffffffffffffffffffffffff16021790555050565b6124726125a0565b73ffffffffffffffffffffffffffffffffffffffff16600a60009054906101000a900473ffffffffffffffffffffffffffffffffffffffff1673ffffffffffffffffffffffffffffffffffffffff1614612534576040517f08c379a00000000000000000000000000000000000000000000000000000000081526004018080602001828103825260208152602001807f4f776e61626c653a2063616c6c6572206973206e6f7420746865206f776e657281525060200191505060405180910390fd5b600061253e6110c3565b905061256c600b60009054906101000a900473ffffffffffffffffffffffffffffffffffffffff1682612be0565b6125768183612dd4565b61257f8161203c565b5050565b6000612599826002612e5e90919063ffffffff16565b9050919050565b600033905090565b816004600083815260200190815260200160002060006101000a81548173ffffffffffffffffffffffffffffffffffffffff021916908373ffffffffffffffffffffffffffffffffffffffff160217905550808273ffffffffffffffffffffffffffffffffffffffff1661261b836112ae565b73ffffffffffffffffffffffffffffffffffffffff167f8c5be1e5ebec7d5bd14f71427d1e84f3dd0314c0f7b2291e5b200ac8c7c3b92560405160405180910390a45050565b600061266f82600001612e78565b9050919050565b600061268182612583565b6126d6576040517f08c379a000000000000000000000000000000000000000000000000000000000815260040180806020018281038252602c815260200180614293602c913960400191505060405180910390fd5b60006126e1836112ae565b90508073ffffffffffffffffffffffffffffffffffffffff168473ffffffffffffffffffffffffffffffffffffffff16148061275057508373ffffffffffffffffffffffffffffffffffffffff1661273884610ee4565b73ffffffffffffffffffffffffffffffffffffffff16145b80612761575061276081856121c6565b5b91505092915050565b8273ffffffffffffffffffffffffffffffffffffffff1661278a826112ae565b73ffffffffffffffffffffffffffffffffffffffff16146127f6576040517f08c379a00000000000000000000000000000000000000000000000000000000081526004018080602001828103825260298152602001806143c46029913960400191505060405180910390fd5b600073ffffffffffffffffffffffffffffffffffffffff168273ffffffffffffffffffffffffffffffffffffffff16141561287c576040517f08c379a000000000000000000000000000000000000000000000000000000000815260040180806020018281038252602481526020018061426f6024913960400191505060405180910390fd5b612887838383612e89565b6128926000826125a8565b6128e381600160008673ffffffffffffffffffffffffffffffffffffffff1673ffffffffffffffffffffffffffffffffffffffff168152602001908152602001600020612e8e90919063ffffffff16565b5061293581600160008573ffffffffffffffffffffffffffffffffffffffff1673ffffffffffffffffffffffffffffffffffffffff168152602001908152602001600020612ea890919063ffffffff16565b5061294c81836002612ec29092919063ffffffff16565b50808273ffffffffffffffffffffffffffffffffffffffff168473ffffffffffffffffffffffffffffffffffffffff167fddf252ad1be2c89b69c2b068fc378daa952ba7f163c4a11628f55a4df523b3ef60405160405180910390a4505050565b60006129bc8360000183612ef7565b60001c905092915050565b6000806000806129da8660000186612f7a565b915091508160001c8160001c9350935050509250929050565b6000612a06846000018460001b84613013565b60001c90509392505050565b6000612a2082600001613109565b9050919050565b612a3284848461276a565b612a3e8484848461311a565b612a93576040517f08c379a00000000000000000000000000000000000000000000000000000000081526004018080602001828103825260328152602001806142176032913960400191505060405180910390fd5b50505050565b60606000821415612ae1576040518060400160405280600181526020017f30000000000000000000000000000000000000000000000000000000000000008152509050612bdb565b600082905060005b60008214612b0b578080600101915050600a8281612b0357fe5b049150612ae9565b60608167ffffffffffffffff81118015612b2457600080fd5b506040519080825280601f01601f191660200182016040528015612b575781602001600182028036833780820191505090505b50905060006001830390508593505b60008414612bd357600a8481612b7857fe5b0660300160f81b82828060019003935081518110612b9257fe5b60200101907effffffffffffffffffffffffffffffffffffffffffffffffffffffffffffff1916908160001a905350600a8481612bcb57fe5b049350612b66565b819450505050505b919050565b600073ffffffffffffffffffffffffffffffffffffffff168273ffffffffffffffffffffffffffffffffffffffff161415612c83576040517f08c379a00000000000000000000000000000000000000000000000000000000081526004018080602001828103825260208152602001807f4552433732313a206d696e7420746f20746865207a65726f206164647265737381525060200191505060405180910390fd5b612c8c81612583565b15612cff576040517f08c379a000000000000000000000000000000000000000000000000000000000815260040180806020018281038252601c8152602001807f4552433732313a20746f6b656e20616c7265616479206d696e7465640000000081525060200191505060405180910390fd5b612d0b60008383612e89565b612d5c81600160008573ffffffffffffffffffffffffffffffffffffffff1673ffffffffffffffffffffffffffffffffffffffff168152602001908152602001600020612ea890919063ffffffff16565b50612d7381836002612ec29092919063ffffffff16565b50808273ffffffffffffffffffffffffffffffffffffffff16600073ffffffffffffffffffffffffffffffffffffffff167fddf252ad1be2c89b69c2b068fc378daa952ba7f163c4a11628f55a4df523b3ef60405160405180910390a45050565b612ddd82612583565b612e32576040517f08c379a000000000000000000000000000000000000000000000000000000000815260040180806020018281038252602c815260200180614398602c913960400191505060405180910390fd5b80600860008481526020019081526020016000209080519060200190612e599291906137eb565b505050565b6000612e70836000018360001b613333565b905092915050565b600081600001805490509050919050565b505050565b6000612ea0836000018360001b613356565b905092915050565b6000612eba836000018360001b61343e565b905092915050565b6000612eee846000018460001b8473ffffffffffffffffffffffffffffffffffffffff1660001b6134ae565b90509392505050565b600081836000018054905011612f58576040517f08c379a00000000000000000000000000000000000000000000000000000000081526004018080602001828103825260228152602001806141f56022913960400191505060405180910390fd5b826000018281548110612f6757fe5b9060005260206000200154905092915050565b60008082846000018054905011612fdc576040517f08c379a000000000000000000000000000000000000000000000000000000000815260040180806020018281038252602281526020018061434a6022913960400191505060405180910390fd5b6000846000018481548110612fed57fe5b906000526020600020906002020190508060000154816001015492509250509250929050565b600080846001016000858152602001908152602001600020549050600081141583906130da576040517f08c379a00000000000000000000000000000000000000000000000000000000081526004018080602001828103825283818151815260200191508051906020019080838360005b8381101561309f578082015181840152602081019050613084565b50505050905090810190601f1680156130cc5780820380516001836020036101000a031916815260200191505b509250505060405180910390fd5b508460000160018203815481106130ed57fe5b9060005260206000209060020201600101549150509392505050565b600081600001805490509050919050565b600061313b8473ffffffffffffffffffffffffffffffffffffffff1661358a565b613148576001905061332b565b60606132b263150b7a0260e01b61315d6125a0565b888787604051602401808573ffffffffffffffffffffffffffffffffffffffff1681526020018473ffffffffffffffffffffffffffffffffffffffff16815260200183815260200180602001828103825283818151815260200191508051906020019080838360005b838110156131e15780820151818401526020810190506131c6565b50505050905090810190601f16801561320e5780820380516001836020036101000a031916815260200191505b5095505050505050604051602081830303815290604052907bffffffffffffffffffffffffffffffffffffffffffffffffffffffff19166020820180517bffffffffffffffffffffffffffffffffffffffffffffffffffffffff8381831617835250505050604051806060016040528060328152602001614217603291398773ffffffffffffffffffffffffffffffffffffffff1661359d9092919063ffffffff16565b905060008180602001905160208110156132cb57600080fd5b8101908080519060200190929190505050905063150b7a0260e01b7bffffffffffffffffffffffffffffffffffffffffffffffffffffffff1916817bffffffffffffffffffffffffffffffffffffffffffffffffffffffff191614925050505b949350505050565b600080836001016000848152602001908152602001600020541415905092915050565b6000808360010160008481526020019081526020016000205490506000811461343257600060018203905060006001866000018054905003905060008660000182815481106133a157fe5b90600052602060002001549050808760000184815481106133be57fe5b90600052602060002001819055506001830187600101600083815260200190815260200160002081905550866000018054806133f657fe5b60019003818190600052602060002001600090559055866001016000878152602001908152602001600020600090556001945050505050613438565b60009150505b92915050565b600061344a83836135b5565b6134a35782600001829080600181540180825580915050600190039060005260206000200160009091909190915055826000018054905083600101600084815260200190815260200160002081905550600190506134a8565b600090505b92915050565b600080846001016000858152602001908152602001600020549050600081141561355557846000016040518060400160405280868152602001858152509080600181540180825580915050600190039060005260206000209060020201600090919091909150600082015181600001556020820151816001015550508460000180549050856001016000868152602001908152602001600020819055506001915050613583565b8285600001600183038154811061356857fe5b90600052602060002090600202016001018190555060009150505b9392505050565b600080823b905060008111915050919050565b60606135ac84846000856135d8565b90509392505050565b600080836001016000848152602001908152602001600020541415905092915050565b60606135e38561358a565b613655576040517f08c379a000000000000000000000000000000000000000000000000000000000815260040180806020018281038252601d8152602001807f416464726573733a2063616c6c20746f206e6f6e2d636f6e747261637400000081525060200191505060405180910390fd5b600060608673ffffffffffffffffffffffffffffffffffffffff1685876040518082805190602001908083835b602083106136a55780518252602082019150602081019050602083039250613682565b6001836020036101000a03801982511681845116808217855250505050505090500191505060006040518083038185875af1925050503d8060008114613707576040519150601f19603f3d011682016040523d82523d6000602084013e61370c565b606091505b509150915081156137215780925050506137d6565b6000815111156137345780518082602001fd5b836040517f08c379a00000000000000000000000000000000000000000000000000000000081526004018080602001828103825283818151815260200191508051906020019080838360005b8381101561379b578082015181840152602081019050613780565b50505050905090810190601f1680156137c85780820380516001836020036101000a031916815260200191505b509250505060405180910390fd5b949350505050565b61096c8061388983390190565b828054600181600116156101000203166002900490600052602060002090601f016020900481019282601f1061382c57805160ff191683800117855561385a565b8280016001018555821561385a579182015b8281111561385957825182559160200191906001019061383e565b5b509050613867919061386b565b5090565b5b8082111561388457600081600090555060010161386c565b509056fe608060405234801561001057600080fd5b5060405161096c38038061096c8339818101604052602081101561003357600080fd5b8101908080519060200190929190505050336000806101000a81548173ffffffffffffffffffffffffffffffffffffffff021916908373ffffffffffffffffffffffffffffffffffffffff16021790555080600160006101000a81548173ffffffffffffffffffffffffffffffffffffffff021916908373ffffffffffffffffffffffffffffffffffffffff16021790555050610897806100d56000396000f3fe60806040526004361061007b5760003560e01c806391f901571161004e57806391f90157146101325780639cf5453d14610173578063c937f9fd146101b7578063d57bde791461021c5761007b565b806312fa6feb146100805780632a24f46c146100ad57806338af3eed146100c45780633ccfd60b14610105575b600080fd5b34801561008c57600080fd5b50610095610247565b60405180821515815260200191505060405180910390f35b3480156100b957600080fd5b506100c261025a565b005b3480156100d057600080fd5b506100d9610465565b604051808273ffffffffffffffffffffffffffffffffffffffff16815260200191505060405180910390f35b34801561011157600080fd5b5061011a61048b565b60405180821515815260200191505060405180910390f35b34801561013e57600080fd5b506101476105af565b604051808273ffffffffffffffffffffffffffffffffffffffff16815260200191505060405180910390f35b6101b56004803603602081101561018957600080fd5b81019080803573ffffffffffffffffffffffffffffffffffffffff1690602001909291905050506105d5565b005b3480156101c357600080fd5b50610206600480360360208110156101da57600080fd5b81019080803573ffffffffffffffffffffffffffffffffffffffff1690602001909291905050506107ce565b6040518082815260200191505060405180910390f35b34801561022857600080fd5b50610231610817565b6040518082815260200191505060405180910390f35b600560009054906101000a900460ff1681565b600560009054906101000a900460ff16156102c0576040517f08c379a000000000000000000000000000000000000000000000000000000000815260040180806020018281038252602381526020018061081e6023913960400191505060405180910390fd5b60008054906101000a900473ffffffffffffffffffffffffffffffffffffffff1673ffffffffffffffffffffffffffffffffffffffff163373ffffffffffffffffffffffffffffffffffffffff1614610364576040517f08c379a00000000000000000000000000000000000000000000000000000000081526004018080602001828103825260218152602001806108416021913960400191505060405180910390fd5b6001600560006101000a81548160ff0219169083151502179055507fdaec4582d5d9595688c8c98545fdd1c696d41c6aeaeb636737e84ed2f5c00eda600260009054906101000a900473ffffffffffffffffffffffffffffffffffffffff16600354604051808373ffffffffffffffffffffffffffffffffffffffff1681526020018281526020019250505060405180910390a1600160009054906101000a900473ffffffffffffffffffffffffffffffffffffffff1673ffffffffffffffffffffffffffffffffffffffff166108fc6003549081150290604051600060405180830381858888f19350505050158015610462573d6000803e3d6000fd5b50565b600160009054906101000a900473ffffffffffffffffffffffffffffffffffffffff1681565b600080600460003373ffffffffffffffffffffffffffffffffffffffff1673ffffffffffffffffffffffffffffffffffffffff16815260200190815260200160002054905060008111156105a6576000600460003373ffffffffffffffffffffffffffffffffffffffff1673ffffffffffffffffffffffffffffffffffffffff168152602001908152602001600020819055503373ffffffffffffffffffffffffffffffffffffffff166108fc829081150290604051600060405180830381858888f193505050506105a55780600460003373ffffffffffffffffffffffffffffffffffffffff1673ffffffffffffffffffffffffffffffffffffffff1681526020019081526020016000208190555060009150506105ac565b5b60019150505b90565b600260009054906101000a900473ffffffffffffffffffffffffffffffffffffffff1681565b600354341161064c576040517f08c379a000000000000000000000000000000000000000000000000000000000815260040180806020018281038252601e8152602001807f546865726520616c7265616479206973206120686967686572206269642e000081525060200191505060405180910390fd5b600560009054906101000a900460ff16156106b2576040517f08c379a000000000000000000000000000000000000000000000000000000000815260040180806020018281038252602381526020018061081e6023913960400191505060405180910390fd5b60006003541461072e5760035460046000600260009054906101000a900473ffffffffffffffffffffffffffffffffffffffff1673ffffffffffffffffffffffffffffffffffffffff1673ffffffffffffffffffffffffffffffffffffffff168152602001908152602001600020600082825401925050819055505b80600260006101000a81548173ffffffffffffffffffffffffffffffffffffffff021916908373ffffffffffffffffffffffffffffffffffffffff160217905550346003819055507ff4757a49b326036464bec6fe419a4ae38c8a02ce3e68bf0809674f6aab8ad3008134604051808373ffffffffffffffffffffffffffffffffffffffff1681526020018281526020019250505060405180910390a150565b6000600460008373ffffffffffffffffffffffffffffffffffffffff1673ffffffffffffffffffffffffffffffffffffffff168152602001908152602001600020549050919050565b6003548156fe61756374696f6e456e642068617320616c7265616479206265656e2063616c6c65642e596f7520617265206e6f74207468652061756374696f6e206465706c6f79657221a264697066735822122033c4d42b24ba792762a2b2480d7ef474f835a82010a49ac3e1f75ad7bfeddb2264736f6c634300060c0033456e756d657261626c655365743a20696e646578206f7574206f6620626f756e64734552433732313a207472616e7366657220746f206e6f6e20455243373231526563656976657220696d706c656d656e7465724f776e61626c653a206e6577206f776e657220697320746865207a65726f20616464726573734552433732313a207472616e7366657220746f20746865207a65726f20616464726573734552433732313a206f70657261746f7220717565727920666f72206e6f6e6578697374656e7420746f6b656e4552433732313a20617070726f76652063616c6c6572206973206e6f74206f776e6572206e6f7220617070726f76656420666f7220616c6c4552433732313a2062616c616e636520717565727920666f7220746865207a65726f20616464726573734552433732313a206f776e657220717565727920666f72206e6f6e6578697374656e7420746f6b656e456e756d657261626c654d61703a20696e646578206f7574206f6620626f756e64734552433732313a20617070726f76656420717565727920666f72206e6f6e6578697374656e7420746f6b656e4552433732314d657461646174613a2055524920736574206f66206e6f6e6578697374656e7420746f6b656e4552433732313a207472616e73666572206f6620746f6b656e2074686174206973206e6f74206f776e4552433732314d657461646174613a2055524920717565727920666f72206e6f6e6578697374656e7420746f6b656e4552433732313a20617070726f76616c20746f2063757272656e74206f776e65724552433732313a207472616e736665722063616c6c6572206973206e6f74206f776e6572206e6f7220617070726f766564a26469706673582212205b8452c7575fe28d6e3ef35bc51775afad7f173422a096c2dbf14011768c04e664736f6c634300060c0033",
  "immutableReferences": {},
  "source": "pragma solidity ^0.6.0;\n\nimport '@openzeppelin/contracts/token/ERC721/ERC721.sol';\nimport '@openzeppelin/contracts/access/Ownable.sol';\nimport './MartianAuction.sol';\n\ncontract MartianMarket is ERC721, Ownable {\n    constructor() ERC721(\"MartianMarket\", \"MARS\") public {}\n\n    // cast a payable address for the Martian Development Foundation to be the beneficiary in the auction\n    // this contract is designed to have the owner of this contract (foundation) to pay for most of the function calls\n    // (all but bid and withdraw)\n    address payable foundationAddress = msg.sender;\n\n    mapping(uint => MartianAuction) public auctions;\n\n    function registerLand(string memory tokenURI) public payable onlyOwner {\n        uint _id = totalSupply();\n        _mint(foundationAddress, _id);\n        _setTokenURI(_id, tokenURI);\n        createAuction(_id);\n    }\n\n    function createAuction(uint tokenId) public onlyOwner {\n        // your code here...\n        auctions[tokenId] = new MartianAuction(foundationAddress);\n    }\n\n    function getAuction(uint tokenId) public view returns(MartianAuction) {\n        // your code here...\n        require(_exists(tokenId), \"Land not registered!\");\n        MartianAuction auction = auctions[tokenId];\n        return auction;\n    }\n    function endAuction(uint tokenId) public onlyOwner {\n        MartianAuction auction = getAuction(tokenId);\n        // your code here...\n        auction.auctionEnd();\n        safeTransferFrom(owner(), auction.highestBidder(), tokenId);\n    }\n\n    function auctionEnded(uint tokenId) public view returns(bool) {\n        // your code here...\n        MartianAuction auction = getAuction(tokenId);\n        return auction.ended();\n    }\n\n    function highestBid(uint tokenId) public view returns(uint) {\n        // your code here...\n        MartianAuction auction = getAuction(tokenId);\n        return auction.highestBid();\n    }\n\n    function pendingReturn(uint tokenId, address sender) public view returns(uint) {\n        // your code here...\n        MartianAuction auction = getAuction(tokenId);\n        return auction.pendingReturn(sender);\n    }\n\n    function bid(uint tokenId) public payable {\n        // your code here...\n        MartianAuction auction = getAuction(tokenId);\n        auction.bid{value:(msg.value)}(msg.sender);\n    }\n\n}\n",
  "sourcePath": "/Users/liwei2/Desktop/homework/hw22/martian-market-truffle/contracts/MartianMarket.sol",
  "compiler": {
    "name": "solc",
    "version": "0.6.12+commit.27d51765.Emscripten.clang"
  },
  "schemaVersion": "3.3.2",
  "updatedAt": "2020-11-20T18:11:51.755Z",
  "networkType": "ethereum",
  "devdoc": {
    "kind": "dev",
    "methods": {
      "approve(address,uint256)": {
        "details": "See {IERC721-approve}."
      },
      "balanceOf(address)": {
        "details": "See {IERC721-balanceOf}."
      },
      "baseURI()": {
        "details": "Returns the base URI set via {_setBaseURI}. This will be automatically added as a prefix in {tokenURI} to each token's URI, or to the token ID if no specific URI is set for that token ID."
      },
      "getApproved(uint256)": {
        "details": "See {IERC721-getApproved}."
      },
      "isApprovedForAll(address,address)": {
        "details": "See {IERC721-isApprovedForAll}."
      },
      "name()": {
        "details": "See {IERC721Metadata-name}."
      },
      "owner()": {
        "details": "Returns the address of the current owner."
      },
      "ownerOf(uint256)": {
        "details": "See {IERC721-ownerOf}."
      },
      "renounceOwnership()": {
        "details": "Leaves the contract without owner. It will not be possible to call `onlyOwner` functions anymore. Can only be called by the current owner. NOTE: Renouncing ownership will leave the contract without an owner, thereby removing any functionality that is only available to the owner."
      },
      "safeTransferFrom(address,address,uint256)": {
        "details": "See {IERC721-safeTransferFrom}."
      },
      "safeTransferFrom(address,address,uint256,bytes)": {
        "details": "See {IERC721-safeTransferFrom}."
      },
      "setApprovalForAll(address,bool)": {
        "details": "See {IERC721-setApprovalForAll}."
      },
      "supportsInterface(bytes4)": {
        "details": "See {IERC165-supportsInterface}. Time complexity O(1), guaranteed to always use less than 30 000 gas."
      },
      "symbol()": {
        "details": "See {IERC721Metadata-symbol}."
      },
      "tokenByIndex(uint256)": {
        "details": "See {IERC721Enumerable-tokenByIndex}."
      },
      "tokenOfOwnerByIndex(address,uint256)": {
        "details": "See {IERC721Enumerable-tokenOfOwnerByIndex}."
      },
      "tokenURI(uint256)": {
        "details": "See {IERC721Metadata-tokenURI}."
      },
      "totalSupply()": {
        "details": "See {IERC721Enumerable-totalSupply}."
      },
      "transferFrom(address,address,uint256)": {
        "details": "See {IERC721-transferFrom}."
      },
      "transferOwnership(address)": {
        "details": "Transfers ownership of the contract to a new account (`newOwner`). Can only be called by the current owner."
      }
    },
    "version": 1
  },
  "userdoc": {
    "kind": "user",
    "methods": {},
    "version": 1
  }
}